:100000000C9462000C948A000C948A000C948A0070
:100010000C948A000C948A000C948A000C948A0038
:100020000C948A000C948A000C948A000C948A0028
:100030000C948A000C948A000C948A000C948A0018
:100040000C9475010C948A000C94D6030C9408044B
:100050000C948A000C948A000C948A000C948A00F8
:100060000C948A000C948A00000000080002010031
:100070000003040700000000000000000102040863
:100080001020408001020408102001020408102002
:10009000040404040404040402020202020203032E
:1000A00003030303000000002300260029000000D2
:1000B0000000250028002B0000000000240027007D
:1000C0002A00380411241FBECFEFD8E0DEBFCDBF19
:1000D00011E0A0E0B1E0E2E1FAE002C005900D928B
:1000E000AC32B107D9F722E0ACE2B1E001C01D9219
:1000F000AA31B207E1F710E0C4ECD0E004C02297C7
:10010000FE010E940305C23CD107C9F70E947C048E
:100110000C9407050C94000060E082E00E942F021E
:1001200060E083E00E942F0260E084E00E942F02E2
:1001300060E086E00E942F0260E087E00E942F02CC
:1001400060E088E00E942F0260E08AE00E942F02B7
:1001500060E08BE00E942F0260E08CE00E942F02A2
:1001600026E040E855E260E070E08DE791E00C9415
:1001700074038F929F92AF92BF92CF92DF92EF92D1
:10018000FF920F931F93CF93DF937B016A01590175
:100190000E946802EC01F70180819181C817D9079C
:1001A00039F00E94BF01F5016083718382839383DC
:1001B0000E94BF01F50180809180A280B380681900
:1001C00079098A099B098090000190900101A09013
:1001D0000201B090030186169706A806B90680F4BE
:1001E000F60180819181892B41F4C130D10529F438
:1001F000B8018DE791E00E94CD04F601D183C08360
:10020000F701D183C083DF91CF911F910F91FF90B0
:10021000EF90DF90CF90BF90AF909F908F90089518
:100220000F931F9304E011E024E631E04CE651E027
:1002300062E771E082E090E00E94B90020E631E0E0
:100240004AE651E060E771E083E090E00E94B90087
:100250002CE531E048E651E06EE671E084E090E0A4
:100260000E94B90006E011E02CE431E044E551E0E1
:100270006AE571E086E090E00E94B90028E431E090
:1002800042E551E068E571E087E090E00E94B90046
:1002900024E431E040E551E066E571E088E090E07B
:1002A0000E94B90008E011E024E331E04CE351E0A2
:1002B00062E471E08AE090E00E94B90020E331E05E
:1002C0004AE351E060E471E08BE090E00E94B90005
:1002D0002CE231E048E351E06EE371E08CE090E025
:1002E0000E94B9001F910F9108951F920F920FB6AF
:1002F0000F9211242F933F938F939F93AF93BF93AC
:100300008091750190917601A0917701B09178016B
:100310003091740123E0230F2D3720F40196A11DA5
:10032000B11D05C026E8230F0296A11DB11D209323
:1003300074018093750190937601A0937701B09337
:1003400078018091790190917A01A0917B01B0911F
:100350007C010196A11DB11D8093790190937A01D2
:10036000A0937B01B0937C01BF91AF919F918F913E
:100370003F912F910F900FBE0F901F9018952FB7A0
:10038000F894609175017091760180917701909158
:1003900078012FBF0895789484B5826084BD84B5B8
:1003A000816084BD85B5826085BD85B5816085BD70
:1003B000EEE6F0E0808181608083E1E8F0E0108289
:1003C000808182608083808181608083E0E8F0E0CA
:1003D000808181608083E1EBF0E0808184608083B4
:1003E000E0EBF0E0808181608083EAE7F0E08081EB
:1003F000846080838081826080838081816080834B
:100400008081806880831092C1000895833081F0DC
:1004100028F4813099F08230A1F008958730A9F056
:100420008830B9F08430D1F4809180008F7D03C092
:10043000809180008F7780938000089584B58F77B6
:1004400002C084B58F7D84BD08958091B0008F7700
:1004500003C08091B0008F7D8093B0000895CF934A
:10046000DF9390E0FC01E458FF4F2491FC01E0573A
:10047000FF4F8491882349F190E0880F991FFC0178
:10048000E854FF4FA591B49182559F4FFC01C5914F
:10049000D4919FB7611108C0F8948C912095822364
:1004A0008C93888182230AC0623051F4F8948C9135
:1004B000322F309583238C938881822B888304C0CC
:1004C000F8948C91822B8C939FBFDF91CF910895EC
:1004D000CF93DF93282F30E0F901E859FF4F849143
:1004E000F901E458FF4FD491F901E057FF4FC4914F
:1004F000CC2391F081110E940602EC2FF0E0EE0F68
:10050000FF1FEC55FF4FA591B4912C912D2381E055
:1005100090E021F480E002C080E090E0DF91CF9194
:100520000895FC01818D228D90E0805C9F4F821B9D
:1005300091098F7399270895FC01918D828D9817E9
:1005400031F0828DE80FF11D858D90E008958FEFD9
:100550009FEF0895FC01918D828D981761F0828D37
:10056000DF01A80FB11D5D968C91928D9F5F9F73E7
:10057000928F90E008958FEF9FEF08958EE294E0C0
:10058000892B49F080E090E0892B29F00E942E040D
:1005900081110C9400000895FC01848DDF01A80FE7
:1005A000B11DA35ABF4F2C91848D90E001968F739B
:1005B0009927848FA689B7892C93A089B1898C91BA
:1005C00080648C93938D848D981306C00288F38980
:1005D000E02D80818F7D80830895CF93DF93EC01A0
:1005E000888D8823C9F0EA89FB89808185FD05C053
:1005F000A889B9898C9186FD0FC00FB607FCF5CF8D
:10060000808185FFF2CFA889B9898C9185FFEDCFD4
:10061000CE010E94CC02E7CFDF91CF910895CF9217
:10062000DF92FF920F931F93CF93DF931F92CDB76B
:10063000DEB76C0181E0D60158968C9358975B9693
:100640009C915B975C968C915C97981307C0509631
:10065000ED91FC915197808185FD2EC0F601038DAF
:1006600010E00F5F1F4F0F731127F02EF601848DDE
:10067000F81211C00FB607FCF9CFD6015096ED91D4
:10068000FC915197808185FFF1CFC60169830E945B
:10069000CC026981EBCF838DE80FF11DE35AFF4F48
:1006A0006083D6015B960C935B975296ED91FC911B
:1006B0005397808180620CC0D6015696ED91FC91D3
:1006C000579760835096ED91FC915197808180649B
:1006D000808381E090E00F90DF91CF911F910F9187
:1006E000FF90DF90CF900895BF92CF92DF92EF926C
:1006F000FF92CF93DF93EC016A017B01B22EE88970
:10070000F98982E08083411581EE58076105710502
:10071000A1F060E079E08DE390E0A70196010E94EE
:10072000DF04215031094109510956954795379504
:100730002795211580E1380798F0E889F98910821A
:1007400060E874E88EE190E0A70196010E94DF0462
:1007500021503109410951095695479537952795FB
:10076000EC85FD853083EE85FF852083188EEC892E
:10077000FD89B082EA89FB89808180618083EA8972
:10078000FB89808188608083EA89FB898081806819
:100790008083EA89FB8980818F7D8083DF91CF917F
:1007A000FF90EF90DF90CF90BF9008951F920F922F
:1007B0000FB60F9211242F938F939F93EF93FF9374
:1007C000E0918D01F0918E018081E0919301F09193
:1007D000940182FD12C09081809196018F5F8F738A
:1007E00020919701821751F0E0919601F0E0E358D3
:1007F000FE4F958F8093960101C08081FF91EF910C
:100800009F918F912F910F900FBE0F901F90189571
:100810001F920F920FB60F9211242F933F934F9375
:100820005F936F937F938F939F93AF93BF93EF9358
:10083000FF938DE791E00E94CC02FF91EF91BF9171
:10084000AF919F918F917F916F915F914F913F9168
:100850002F910F900FBE0F901F9018958DE791E08C
:100860000E94910221E0892B09F420E0822F089553
:100870001092800110927F0188EE93E0A0E0B0E03A
:100880008093810190938201A0938301B0938401AE
:100890008EE091E090937E0180937D0185EC90E065
:1008A00090938A018093890184EC90E090938C016D
:1008B00080938B0180EC90E090938E0180938D016A
:1008C00081EC90E09093900180938F0182EC90E016
:1008D000909392018093910186EC90E09093940123
:1008E00080939301109296011092970110929801B3
:1008F00010929901089508950E94CB010E947B04F3
:100900000E948C00CEEBD2E00E9410012097E1F310
:100910000E94BE02F9CFCF92DF92EF92FF920F9327
:100920001F93CF93DF937C016A01EB0100E010E09D
:100930000C151D0571F06991D701ED91FC910190A5
:10094000F081E02DC7010995892B19F00F5F1F4F2A
:10095000EFCFC801DF91CF911F910F91FF90EF90E2
:10096000DF90CF9008956115710581F0DB010D9046
:100970000020E9F7AD0141505109461B570BDC013E
:10098000ED91FC910280F381E02D099480E090E0EC
:1009900008956AE171E00C94B3040F931F93CF9311
:1009A000DF93EC010E94B3048C01CE010E94C904C4
:1009B000800F911FDF91CF911F910F910895A1E2B8
:1009C0001A2EAA1BBB1BFD010DC0AA1FBB1FEE1FC9
:1009D000FF1FA217B307E407F50720F0A21BB30B14
:1009E000E40BF50B661F771F881F991F1A9469F790
:1009F00060957095809590959B01AC01BD01CF01EC
:100A00000895EE0FFF1F0590F491E02D0994F894DE
:020A1000FFCF16
:100A120032000000300031003200000000000F03FD
:100A22008B049102AA029C02ED020D0A006E616E15
:0C0A320000696E66006F7666002E000002
:00000001FF
